{
  "contractName": "VotingSystem",
  "abi": [
    {
      "anonymous": false,
      "inputs": [
        {
          "indexed": true,
          "internalType": "uint256",
          "name": "proposalId",
          "type": "uint256"
        },
        {
          "indexed": true,
          "internalType": "address",
          "name": "creator",
          "type": "address"
        },
        {
          "indexed": false,
          "internalType": "string",
          "name": "title",
          "type": "string"
        }
      ],
      "name": "ProposalCreated",
      "type": "event"
    },
    {
      "anonymous": false,
      "inputs": [
        {
          "indexed": true,
          "internalType": "uint256",
          "name": "proposalId",
          "type": "uint256"
        },
        {
          "indexed": false,
          "internalType": "enum VotingSystem.Status",
          "name": "newStatus",
          "type": "uint8"
        }
      ],
      "name": "ProposalStatusChanged",
      "type": "event"
    },
    {
      "anonymous": false,
      "inputs": [
        {
          "indexed": true,
          "internalType": "uint256",
          "name": "proposalId",
          "type": "uint256"
        },
        {
          "indexed": true,
          "internalType": "address",
          "name": "voter",
          "type": "address"
        },
        {
          "indexed": false,
          "internalType": "enum VotingSystem.VoteType",
          "name": "voteType",
          "type": "uint8"
        }
      ],
      "name": "VoteCast",
      "type": "event"
    },
    {
      "inputs": [
        {
          "internalType": "string",
          "name": "_title",
          "type": "string"
        },
        {
          "internalType": "string",
          "name": "_description",
          "type": "string"
        }
      ],
      "name": "createProposal",
      "outputs": [
        {
          "internalType": "uint256",
          "name": "",
          "type": "uint256"
        }
      ],
      "stateMutability": "nonpayable",
      "type": "function"
    },
    {
      "inputs": [
        {
          "internalType": "uint256",
          "name": "_proposalId",
          "type": "uint256"
        },
        {
          "internalType": "enum VotingSystem.VoteType",
          "name": "_voteType",
          "type": "uint8"
        }
      ],
      "name": "castVote",
      "outputs": [],
      "stateMutability": "nonpayable",
      "type": "function"
    },
    {
      "inputs": [
        {
          "internalType": "uint256",
          "name": "_proposalId",
          "type": "uint256"
        },
        {
          "internalType": "enum VotingSystem.Status",
          "name": "_newStatus",
          "type": "uint8"
        }
      ],
      "name": "updateProposalStatus",
      "outputs": [],
      "stateMutability": "nonpayable",
      "type": "function"
    },
    {
      "inputs": [
        {
          "internalType": "uint256",
          "name": "_proposalId",
          "type": "uint256"
        }
      ],
      "name": "getProposal",
      "outputs": [
        {
          "components": [
            {
              "internalType": "uint256",
              "name": "id",
              "type": "uint256"
            },
            {
              "internalType": "address",
              "name": "creator",
              "type": "address"
            },
            {
              "internalType": "string",
              "name": "title",
              "type": "string"
            },
            {
              "internalType": "string",
              "name": "description",
              "type": "string"
            },
            {
              "internalType": "uint256",
              "name": "approveCount",
              "type": "uint256"
            },
            {
              "internalType": "uint256",
              "name": "rejectCount",
              "type": "uint256"
            },
            {
              "internalType": "uint256",
              "name": "totalVotes",
              "type": "uint256"
            },
            {
              "internalType": "uint256",
              "name": "createdAt",
              "type": "uint256"
            },
            {
              "internalType": "enum VotingSystem.Status",
              "name": "status",
              "type": "uint8"
            }
          ],
          "internalType": "struct VotingSystem.Proposal",
          "name": "",
          "type": "tuple"
        }
      ],
      "stateMutability": "view",
      "type": "function"
    },
    {
      "inputs": [],
      "name": "getAllProposals",
      "outputs": [
        {
          "components": [
            {
              "internalType": "uint256",
              "name": "id",
              "type": "uint256"
            },
            {
              "internalType": "address",
              "name": "creator",
              "type": "address"
            },
            {
              "internalType": "string",
              "name": "title",
              "type": "string"
            },
            {
              "internalType": "string",
              "name": "description",
              "type": "string"
            },
            {
              "internalType": "uint256",
              "name": "approveCount",
              "type": "uint256"
            },
            {
              "internalType": "uint256",
              "name": "rejectCount",
              "type": "uint256"
            },
            {
              "internalType": "uint256",
              "name": "totalVotes",
              "type": "uint256"
            },
            {
              "internalType": "uint256",
              "name": "createdAt",
              "type": "uint256"
            },
            {
              "internalType": "enum VotingSystem.Status",
              "name": "status",
              "type": "uint8"
            }
          ],
          "internalType": "struct VotingSystem.Proposal[]",
          "name": "",
          "type": "tuple[]"
        }
      ],
      "stateMutability": "view",
      "type": "function"
    },
    {
      "inputs": [
        {
          "internalType": "uint256",
          "name": "_proposalId",
          "type": "uint256"
        }
      ],
      "name": "getProposalVotes",
      "outputs": [
        {
          "components": [
            {
              "internalType": "uint256",
              "name": "proposalId",
              "type": "uint256"
            },
            {
              "internalType": "address",
              "name": "voter",
              "type": "address"
            },
            {
              "internalType": "enum VotingSystem.VoteType",
              "name": "voteType",
              "type": "uint8"
            },
            {
              "internalType": "uint256",
              "name": "votedAt",
              "type": "uint256"
            }
          ],
          "internalType": "struct VotingSystem.Vote[]",
          "name": "",
          "type": "tuple[]"
        }
      ],
      "stateMutability": "view",
      "type": "function"
    },
    {
      "inputs": [
        {
          "internalType": "uint256",
          "name": "_proposalId",
          "type": "uint256"
        },
        {
          "internalType": "address",
          "name": "_voter",
          "type": "address"
        }
      ],
      "name": "hasVotedOnProposal",
      "outputs": [
        {
          "internalType": "bool",
          "name": "",
          "type": "bool"
        }
      ],
      "stateMutability": "view",
      "type": "function"
    }
  ],
  "bytecode": "0x608060405234801561001057600080fd5b506112c0806100206000396000f3fe608060405234801561001057600080fd5b506004361061007d5760003560e01c8063600303d81161005b578063600303d8146100d357806365e481e2146100f6578063c7f758a814610117578063cceb68f51461013757600080fd5b80630fab929a1461008257806347c661401461009757806356781388146100c0575b600080fd5b610095610090366004610ce7565b61014c565b005b6100aa6100a5366004610d1b565b61028a565b6040516100b79190610d5e565b60405180910390f35b6100956100ce366004610dd4565b610372565b6100e66100e1366004610dfd565b610676565b60405190151581526020016100b7565b610109610104366004610ed1565b6106c6565b6040519081526020016100b7565b61012a610125366004610d1b565b610870565b6040516100b79190611028565b61013f610a83565b6040516100b79190611042565b60005482106101765760405162461bcd60e51b815260040161016d906110a4565b60405180910390fd5b336001600160a01b031660008381548110610193576101936110db565b60009182526020909120600160099092020101546001600160a01b0316146102085760405162461bcd60e51b815260206004820152602260248201527f4f6e6c79207468652063726561746f722063616e207570646174652073746174604482015261757360f01b606482015260840161016d565b806000838154811061021c5761021c6110db565b60009182526020909120600860099092020101805460ff1916600183600381111561024957610249610d34565b0217905550817f3346abf262ac5179e9052765fb72484e0baab1f356f08442bb7a3054147631de8260405161027e91906110f1565b60405180910390a25050565b60005460609082106102ae5760405162461bcd60e51b815260040161016d906110a4565b600082815260016020908152604080832080548251818502810185019093528083529193909284015b828210156103675760008481526020908190206040805160808101825260038602909201805483526001808201546001600160a01b038116958501959095529293909291840191600160a01b90910460ff169081111561033957610339610d34565b600181111561034a5761034a610d34565b8152602001600282015481525050815260200190600101906102d7565b505050509050919050565b60005482106103935760405162461bcd60e51b815260040161016d906110a4565b60008083815481106103a7576103a76110db565b600091825260209091206008600990920201015460ff1660038111156103cf576103cf610d34565b146104155760405162461bcd60e51b815260206004820152601660248201527550726f706f73616c206973206e6f742061637469766560501b604482015260640161016d565b600082815260026020908152604080832033845290915290205460ff161561047f5760405162461bcd60e51b815260206004820152601e60248201527f416c726561647920766f746564206f6e20746869732070726f706f73616c0000604482015260640161016d565b600082815260026020908152604080832033808552908352818420805460ff191660019081179091558251608081018452878152938401919091529082019084908111156104cf576104cf610d34565b815242602091820152600085815260018083526040808320805480840182559084529284902085516003909402019283559284015182820180546001600160a01b039092166001600160a01b0319831681178255948601519596508695939490926001600160a81b03199092161790600160a01b90849081111561055557610555610d34565b021790555060609190910151600290910155600082600181111561057b5761057b610d34565b036105c057600160008481548110610595576105956110db565b906000526020600020906009020160040160008282546105b591906110ff565b909155506105fb9050565b6001600084815481106105d5576105d56110db565b906000526020600020906009020160050160008282546105f591906110ff565b90915550505b600160008481548110610610576106106110db565b9060005260206000209060090201600601600082825461063091906110ff565b9091555050604051339084907feba4866100b822f0f391e610e7edfab790b9e8766c0012733c26b2f1858e8dd790610669908690611120565b60405180910390a3505050565b6000805483106106985760405162461bcd60e51b815260040161016d906110a4565b5060008281526002602090815260408083206001600160a01b038516845290915290205460ff165b92915050565b6000805460408051610120810182528281523360208201908152918101868152606082018690526080820185905260a0820185905260c082018590524260e0830152610100820185905260018401855584805281517f290decd9548b62a8d60345a988386fc84ba6bc95484008f6362f93160ef3e5636009860290810191825593517f290decd9548b62a8d60345a988386fc84ba6bc95484008f6362f93160ef3e564850180546001600160a01b0319166001600160a01b039092169190911790559051919283927f290decd9548b62a8d60345a988386fc84ba6bc95484008f6362f93160ef3e565909101906107bd90826111b7565b50606082015160038201906107d290826111b7565b506080820151600482015560a0820151600582015560c0820151600682015560e0820151600782015561010082015160088201805460ff1916600183600381111561081f5761081f610d34565b02179055505050336001600160a01b0316827f7585f467599d0f008985f231af99293be388626ac16ca59505c2f8f88969cd63876040516108609190611277565b60405180910390a3509392505050565b610878610c82565b60005482106108995760405162461bcd60e51b815260040161016d906110a4565b600082815481106108ac576108ac6110db565b906000526020600020906009020160405180610120016040529081600082015481526020016001820160009054906101000a90046001600160a01b03166001600160a01b03166001600160a01b0316815260200160028201805461090f9061112e565b80601f016020809104026020016040519081016040528092919081815260200182805461093b9061112e565b80156109885780601f1061095d57610100808354040283529160200191610988565b820191906000526020600020905b81548152906001019060200180831161096b57829003601f168201915b505050505081526020016003820180546109a19061112e565b80601f01602080910402602001604051908101604052809291908181526020018280546109cd9061112e565b8015610a1a5780601f106109ef57610100808354040283529160200191610a1a565b820191906000526020600020905b8154815290600101906020018083116109fd57829003601f168201915b505050918352505060048201546020820152600582015460408201526006820154606082015260078201546080820152600882015460a09091019060ff166003811115610a6957610a69610d34565b6003811115610a7a57610a7a610d34565b90525092915050565b60606000805480602002602001604051908101604052809291908181526020016000905b82821015610c795760008481526020908190206040805161012081018252600986029092018054835260018101546001600160a01b03169383019390935260028301805492939291840191610afb9061112e565b80601f0160208091040260200160405190810160405280929190818152602001828054610b279061112e565b8015610b745780601f10610b4957610100808354040283529160200191610b74565b820191906000526020600020905b815481529060010190602001808311610b5757829003601f168201915b50505050508152602001600382018054610b8d9061112e565b80601f0160208091040260200160405190810160405280929190818152602001828054610bb99061112e565b8015610c065780601f10610bdb57610100808354040283529160200191610c06565b820191906000526020600020905b815481529060010190602001808311610be957829003601f168201915b505050918352505060048201546020820152600582015460408201526006820154606082015260078201546080820152600882015460a09091019060ff166003811115610c5557610c55610d34565b6003811115610c6657610c66610d34565b8152505081526020019060010190610aa7565b50505050905090565b6040518061012001604052806000815260200160006001600160a01b0316815260200160608152602001606081526020016000815260200160008152602001600081526020016000815260200160006003811115610ce257610ce2610d34565b905290565b60008060408385031215610cfa57600080fd5b82359150602083013560048110610d1057600080fd5b809150509250929050565b600060208284031215610d2d57600080fd5b5035919050565b634e487b7160e01b600052602160045260246000fd5b60028110610d5a57610d5a610d34565b9052565b602080825282518282018190526000919060409081850190868401855b82811015610dc757815180518552868101516001600160a01b03168786015285810151610daa87870182610d4a565b506060908101519085015260809093019290850190600101610d7b565b5091979650505050505050565b60008060408385031215610de757600080fd5b82359150602083013560028110610d1057600080fd5b60008060408385031215610e1057600080fd5b8235915060208301356001600160a01b0381168114610d1057600080fd5b634e487b7160e01b600052604160045260246000fd5b600082601f830112610e5557600080fd5b813567ffffffffffffffff80821115610e7057610e70610e2e565b604051601f8301601f19908116603f01168101908282118183101715610e9857610e98610e2e565b81604052838152866020858801011115610eb157600080fd5b836020870160208301376000602085830101528094505050505092915050565b60008060408385031215610ee457600080fd5b823567ffffffffffffffff80821115610efc57600080fd5b610f0886838701610e44565b93506020850135915080821115610f1e57600080fd5b50610f2b85828601610e44565b9150509250929050565b6000815180845260005b81811015610f5b57602081850181015186830182015201610f3f565b506000602082860101526020601f19601f83011685010191505092915050565b60048110610d5a57610d5a610d34565b6000610120825184526020830151610fae60208601826001600160a01b03169052565b506040830151816040860152610fc682860182610f35565b91505060608301518482036060860152610fe08282610f35565b9150506080830151608085015260a083015160a085015260c083015160c085015260e083015160e08501526101008084015161101e82870182610f7b565b5090949350505050565b60208152600061103b6020830184610f8b565b9392505050565b6000602080830181845280855180835260408601915060408160051b870101925083870160005b8281101561109757603f19888603018452611085858351610f8b565b94509285019290850190600101611069565b5092979650505050505050565b60208082526017908201527f50726f706f73616c20646f6573206e6f74206578697374000000000000000000604082015260600190565b634e487b7160e01b600052603260045260246000fd5b602081016106c08284610f7b565b808201808211156106c057634e487b7160e01b600052601160045260246000fd5b602081016106c08284610d4a565b600181811c9082168061114257607f821691505b60208210810361116257634e487b7160e01b600052602260045260246000fd5b50919050565b601f8211156111b257600081815260208120601f850160051c8101602086101561118f5750805b601f850160051c820191505b818110156111ae5782815560010161119b565b5050505b505050565b815167ffffffffffffffff8111156111d1576111d1610e2e565b6111e5816111df845461112e565b84611168565b602080601f83116001811461121a57600084156112025750858301515b600019600386901b1c1916600185901b1785556111ae565b600085815260208120601f198616915b828110156112495788860151825594840194600190910190840161122a565b50858210156112675787850151600019600388901b60f8161c191681555b5050505050600190811b01905550565b60208152600061103b6020830184610f3556fea264697066735822122067056a1a488c77c51727b6a1ce7b7d57b1ddd56a017ee99f19a66b30893d70a264736f6c63430008110033",
  "immutableReferences": {},
  "source": "// SPDX-License-Identifier: MIT\r\npragma solidity ^0.8.0;\r\n\r\ncontract VotingSystem {\r\n    // Enum to represent proposal status\r\n    enum Status { Active, Pending, Passed, Rejected }\r\n    \r\n    // Enum to represent vote type\r\n    enum VoteType { Approve, Reject }\r\n    \r\n    // Structure to store proposal data\r\n    struct Proposal {\r\n        uint256 id;\r\n        address creator;\r\n        string title;\r\n        string description;\r\n        uint256 approveCount; // Votes approving the proposal\r\n        uint256 rejectCount;  // Votes rejecting the proposal\r\n        uint256 totalVotes;   // Total votes (approve + reject)\r\n        uint256 createdAt;\r\n        Status status;\r\n    }\r\n    \r\n    // Structure to store vote data\r\n    struct Vote {\r\n        uint256 proposalId;\r\n        address voter;\r\n        VoteType voteType;    // Whether approve or reject\r\n        uint256 votedAt;\r\n    }\r\n    \r\n    // Array to store all proposals\r\n    Proposal[] private proposals;\r\n    \r\n    // Mapping to store votes by proposal\r\n    mapping(uint256 => Vote[]) private proposalVotes;\r\n    \r\n    // Mapping to check if user has voted on a proposal\r\n    mapping(uint256 => mapping(address => bool)) private hasVoted;\r\n    \r\n    // Events\r\n    event ProposalCreated(uint256 indexed proposalId, address indexed creator, string title);\r\n    event VoteCast(uint256 indexed proposalId, address indexed voter, VoteType voteType);\r\n    event ProposalStatusChanged(uint256 indexed proposalId, Status newStatus);\r\n    \r\n    // Create a new proposal\r\n    function createProposal(string memory _title, string memory _description) public returns (uint256) {\r\n        uint256 proposalId = proposals.length;\r\n        \r\n        Proposal memory newProposal = Proposal({\r\n            id: proposalId,\r\n            creator: msg.sender,\r\n            title: _title,\r\n            description: _description,\r\n            approveCount: 0,\r\n            rejectCount: 0,\r\n            totalVotes: 0,\r\n            createdAt: block.timestamp,\r\n            status: Status.Active\r\n        });\r\n        \r\n        proposals.push(newProposal);\r\n        \r\n        emit ProposalCreated(proposalId, msg.sender, _title);\r\n        \r\n        return proposalId;\r\n    }\r\n    \r\n    // Cast a vote on a proposal\r\n    function castVote(uint256 _proposalId, VoteType _voteType) public {\r\n        require(_proposalId < proposals.length, \"Proposal does not exist\");\r\n        require(proposals[_proposalId].status == Status.Active, \"Proposal is not active\");\r\n        require(!hasVoted[_proposalId][msg.sender], \"Already voted on this proposal\");\r\n        \r\n        hasVoted[_proposalId][msg.sender] = true;\r\n        \r\n        Vote memory newVote = Vote({\r\n            proposalId: _proposalId,\r\n            voter: msg.sender,\r\n            voteType: _voteType,\r\n            votedAt: block.timestamp\r\n        });\r\n        \r\n        proposalVotes[_proposalId].push(newVote);\r\n        \r\n        // Update proposal vote counts\r\n        if (_voteType == VoteType.Approve) {\r\n            proposals[_proposalId].approveCount += 1;\r\n        } else {\r\n            proposals[_proposalId].rejectCount += 1;\r\n        }\r\n        \r\n        proposals[_proposalId].totalVotes += 1;\r\n        \r\n        emit VoteCast(_proposalId, msg.sender, _voteType);\r\n    }\r\n    \r\n    // Update a proposal's status\r\n    function updateProposalStatus(uint256 _proposalId, Status _newStatus) public {\r\n        require(_proposalId < proposals.length, \"Proposal does not exist\");\r\n        require(proposals[_proposalId].creator == msg.sender, \"Only the creator can update status\");\r\n        \r\n        proposals[_proposalId].status = _newStatus;\r\n        \r\n        emit ProposalStatusChanged(_proposalId, _newStatus);\r\n    }\r\n    \r\n    // Get a single proposal\r\n    function getProposal(uint256 _proposalId) public view returns (Proposal memory) {\r\n        require(_proposalId < proposals.length, \"Proposal does not exist\");\r\n        return proposals[_proposalId];\r\n    }\r\n    \r\n    // Get all proposals\r\n    function getAllProposals() public view returns (Proposal[] memory) {\r\n        return proposals;\r\n    }\r\n    \r\n    // Get votes for a proposal\r\n    function getProposalVotes(uint256 _proposalId) public view returns (Vote[] memory) {\r\n        require(_proposalId < proposals.length, \"Proposal does not exist\");\r\n        return proposalVotes[_proposalId];\r\n    }\r\n    \r\n    // Check if a user has voted on a proposal\r\n    function hasVotedOnProposal(uint256 _proposalId, address _voter) public view returns (bool) {\r\n        require(_proposalId < proposals.length, \"Proposal does not exist\");\r\n        return hasVoted[_proposalId][_voter];\r\n    }\r\n}",
  "sourcePath": "D:\\Uni\\Projects\\PDC\\vote-me-maybe\\contracts\\contracts\\VotingSystem.sol",
  "compiler": {
    "name": "solc",
    "version": "0.8.17+commit.8df45f5f.Emscripten.clang"
  },
  "schemaVersion": "3.4.16",
  "updatedAt": "2025-05-08T01:51:55.146Z",
  "devdoc": {
    "kind": "dev",
    "methods": {},
    "version": 1
  },
  "userdoc": {
    "kind": "user",
    "methods": {},
    "version": 1
  }
}